:100000007DC0A1C0A0C022C39EC09DC099C39BC09B
:100010009AC08FC598C000C73CC795C094C093C014
:1000200092C091C090C007634236B79BD8A71A39D7
:10003000685618AEBAAB558C1D3CB7CC5763BD6D36
:10004000EDFD753EF6177231BF000000803F0800DD
:100050000000BE922449123EABAAAA2ABECDCCCC47
:100060004C3E00000080BEABAAAAAA3E00000000E1
:10007000BF000000803F0000000000084178D3BBB3
:100080004387D1133D190E3CC3BD4282AD2B3E6860
:10009000EC8276BED98FE1A93E4C80EFFFBE01C451
:1000A000FF7F3F0000000000000000000000000093
:1000B0000003040500000000000000000102040825
:1000C00010204080010204081020010204081020C2
:1000D00004040404040404040202020202020303EE
:1000E0000303030300000000380035003200000065
:1000F00000003700340031006703FE0711241FBEE3
:10010000CFE5D4E0DEBFCDBF10E0A0E6B0E0E8ED83
:10011000FAE102C005900D92AE3DB107D9F721E09A
:10012000AEEDB0E001C01D92A03FB207E1F710E0D4
:10013000CCEFD0E003C02297FE01C8DCC83FD10756
:10014000D1F784D5C7CC5CCF0F931F93FC01C901B5
:10015000718360835583448364E670E02EDC758789
:1001600064871383028381E01F910F9158C50F9319
:100170001F93CF93DF938C01FC01808153D5BC0189
:10018000882777FD8095982FA9D920E030E040EAB4
:100190005BE330DAF801228133812833F4E03F0752
:1001A00051F42AE939E949E95FEB87DA2DEC3CECB7
:1001B0004CEE51E41AC0263B4EE4340751F42DECCA
:1001C0003CEC4CE85FEB79DA20E030E042E852E4C6
:1001D0000CC02E3A314061F42DEC3CEC4CE85FEB66
:1001E0006CDA20E030E040E551E404DA44D9EB0178
:1001F000CE01DF91CF911F910F9108950F931F931F
:10020000CF93DF93EC011F821E821986188600E0CF
:1002100010E08C819D810817190704F5CE01A7DF36
:100220006C857D854A855B85649F9001659F300D57
:10023000749F300D1124821793076CF09B878A8777
:1002400028853985280F391F398728878E819F8116
:1002500001969F838E830F5F1F4FDBCF8885998523
:100260006E817F81AADBCB01DF91CF911F910F912E
:1002700008954F925F926F927F92AF92BF92CF920A
:10028000DF92EF92FF920F931F93FC01653B710584
:1002900014F064EB70E0A080B180CC24B7FCC09473
:1002A000DC2C2B0177FF02C0412C512CB201882796
:1002B00077FD8095982F228133812901662457FC90
:1002C0006094762C7F926F925F924F9214EBE12EA6
:1002D000F12C00E010E020E030E0A901C0D40F9044
:1002E0000F900F900F90CB011F910F91FF90EF9007
:1002F000DF90CF90BF90AF907F906F905F904F90C6
:100300000895F8948BE085BD8FEF83BD89B7806831
:1003100089BF789466E070E084E191E053D36BE0AC
:1003200070E08DE091E04ED361E087E094D361E02E
:1003300089E091D361E088E08ED361E08AE08BD3DD
:1003400060E08CE088D360E08DE085D360E08EE0F3
:1003500082D360E08FE07FD360E080E17CD360E017
:1003600081E179D360E082E176D360E083E173D309
:100370002AD46093DF007093E0008093E1009093B3
:10038000E20040E855E260E070E086E491E0B7C545
:10039000CF93DF9380916400843BA1F48DEE90E0D5
:1003A0002DDFEC0166E670E086E491E0B9D64AE024
:1003B00050E0BE0186E491E07BD7CF31D10564F4F3
:1003C00080E00FC08BEF90E019DFEC016FE670E08A
:1003D00086E491E0BFD6EBCFD0936100C09360007C
:1003E00081E0DF91CF91089580916000909161004C
:1003F0004F9744F081E02091E5003091E60012161D
:1004000013060CF080E008958091600090916100E7
:10041000893C910514F48EE101C082E38093EC00E5
:100420008093EB00089581E090E09093EA00809340
:10043000E9001092E8001092E70084E18093EC005C
:100440008093EB001092E6001092E50084EB80931D
:10045000640008959DDF8823B9F067E770E086E4C3
:1004600091E078D6B0D36093DF007093E000809382
:10047000E1009093E2001092EA001092E9001092DD
:10048000E8001092E700C0CFAFDF882379F069E879
:1004900070E086E491E05ED696D36093DF007093BF
:1004A000E0008093E1009093E200BDCF1092EC0059
:1004B0001092EB0008950F931F93CF93DF938DEE6F
:1004C00090E09CDEEC018BEF90E098DE8C01409197
:1004D00064008C179D075CF5D0936100C0936000A9
:1004E00024EB30E0241B31093093E6002093E50033
:1004F0006FE670E086E491E013D64AE050E0B80180
:1005000086E491E0D5D666E670E086E491E008D610
:100510004AE050E0BE0186E491E0CAD663EA70E0AA
:1005200086E491E0DF91CF911F910F9113C6443B78
:1005300028F01092E4001092E30008C0411106C0B8
:1005400081E090E09093E4008093E3008091E300E9
:100550009091E400892B11F44A5001C0465F40930A
:100560006400DF91CF911F910F9108950F931F9316
:1005700080916200811102C06DDF9DDF24D3009164
:10058000DF001091E0002091E1003091E200601B5B
:10059000710B820B930B653F71408105910560F0F3
:1005A0001092EC001092EB001092EA001092E90019
:1005B0001092E8001092E7008091EC002091EB008F
:1005C000821708F4282F263010F48FEF03C022334F
:1005D00018F08EE383BD0DC030E025503109AFE344
:1005E000BFEF3CDA2DE230E040E050E01BDA215072
:1005F00023BD6091640070E080E191E03ADEBC01CF
:1006000084E191E0E4D16091630070E089E091E0E1
:1006100030DEBC018DE091E0DAD161E08091E9004B
:100620009091EA00892B09F060E087E04DD261E00B
:100630008091E7009091E800892B09F060E088E064
:1006400043D2109262001F910F9108951F920F9252
:100650000FB60F9211242F933F934F935F936F9395
:100660007F938F939F93AF93BF93EF93FF9380916B
:10067000DE008F5F8093DE009091DE0061E080916C
:10068000EC00891708F460E089E01ED29091DE004A
:1006900061E08091EB00891708F460E08AE014D2F1
:1006A0008091DE00843610F01092DE00FF91EF9111
:1006B000BF91AF919F918F917F916F915F914F917A
:1006C0003F912F910F900FBE0F901F9018950F9391
:1006D0001F93CF93DF9384E191E0E0D000E212E03A
:1006E0001093110100931001C0E6D9E0D0931301DB
:1006F000C09312018DE091E0D1D010930A010093D4
:100700000901D0930C01C0930B0106EB1EE42DE50B
:1007100030E049E150E060E170E08BEF90E014DD03
:100720000EEA11E02DE530E049E150E06FE070E0C5
:100730008DEE90E009DDDF91CF911F910F9108952B
:100740001F920F920FB60F9211242F933F934F9346
:100750005F936F937F938F939F93AF93BF93EF9329
:10076000FF938091180187FF03C01DBC1CBC1AC0F9
:1007700020911801332727FD30958091170190E0D3
:10078000281739077CF480911801992787FD9095E7
:10079000FC01EE0FFF1FE80FF91FE75EFE4F80819F
:1007A00086FD15C0809118018F5F809318012091FC
:1007B0001801332727FD30958091170190E0281705
:1007C0003907B4F4809118018C3024F111C0809164
:1007D0001801992787FD9095FC01EE0FFF1FE80F88
:1007E000F91FE75EFE4F808160E08F736DD1DACF35
:1007F0008CB59DB5049680349C4918F480E49CE93E
:1008000003C08CB59DB504969BBD8ABD8FEF8093C8
:10081000180133C08CB59DB520911801332727FDF1
:100820003095F901EE0FFF1FE20FF31FE75EFE4F59
:1008300021813281820F931F9BBD8ABD8091180157
:10084000992787FD9095FC01EE0FFF1FE80FF91F18
:10085000E75EFE4F808186FF10C0809118019927C6
:1008600087FD9095FC01EE0FFF1FE80FF91FE75E73
:10087000FE4F808161E08F7327D1FF91EF91BF918F
:10088000AF919F918F917F916F915F914F913F9128
:100890002F910F900FBE0F901F9018952091170168
:1008A0002C30A0F431E0320F30931701FC0120838B
:1008B000822F90E0FC01EE0FFF1FE80FF91FE75EAB
:1008C000FE4F88EB9BE09283818308952FEFFC011C
:1008D00020830895DF92EF92FF920F931F93CF939F
:1008E000DF93EC01D62E7A01890188818C3008F0E3
:1008F00060C061E08D2DAFD08881A82FB0E0FD01F0
:10090000EE0FFF1FEA0FFB1FE75EFE4F2D2D2F732B
:100910009081907C922B908360E272E06E197F0947
:1009200077FF02C06D5F7F4F7595679575956795E9
:10093000698340E659E0401B510B57FF02C04D5FF1
:100940005F4F55954795559547954A836CE029D853
:100950009CE0899FB001112420E030E0A901460FFE
:10096000571FFA01EE0FFF1FE40FF51FE75EFE4F62
:10097000908196FD12C02F5F3F4F2C30310571F7EB
:1009800081110BC01FBC82E08EBD1DBC1CBC88B792
:10099000806188BF89B7806189BF888190E0FC0150
:1009A000EE0FFF1FE80FF91FE75EFE4F80818064A6
:1009B00080838881DF91CF911F910F91FF90EF90FD
:1009C000DF90089520E639E040E252E083CFFC0159
:1009D00080818C3070F5918128E830E0291B310945
:1009E00097FD3395220F331F220F331F62177307B2
:1009F0007CF0928128E532E0291B310997FD33957F
:100A0000220F331F220F331F621773070CF49B0151
:100A10004FB7F89490E0FC01EE0FFF1FE80FF91FAD
:100A2000E75EFE4F22503109220F331F32832183AC
:100A30004FBF0895843039F0853049F0833051F448
:100A40008FB58F7702C08FB58F7D8FBD089585B527
:100A50008F7D85BD0895CF93DF9390E0FC01E45432
:100A6000FF4F2491FC01E053FF4F8491882349F10B
:100A700090E0880F991FFC01E251FF4FA591B491BE
:100A80008C519F4FFC01C591D4919FB7611108C053
:100A9000F8948C91209582238C93888182230AC0BC
:100AA000623051F4F8948C91322F309583238C93DB
:100AB0008881822B888304C0F8948C91822B8C933C
:100AC0009FBFDF91CF9108950F931F93CF93DF9333
:100AD0001F92CDB7DEB7282F30E0F901E855FF4F60
:100AE0008491F901E454FF4F1491F901E053FF4F51
:100AF00004910023C1F0882319F069839BDF698189
:100B0000E02FF0E0EE0FFF1FEC51FF4FA591B491E5
:100B10009FB7F8948C91611103C01095812301C097
:100B2000812B8C939FBF0F90DF91CF911F910F91DD
:100B300008951F920F920FB60F9211242F933F9397
:100B40008F939F93AF93BF9380913E0190913F010C
:100B5000A0914001B091410130913D0123E0230F6C
:100B60002D3720F40196A11DB11D05C026E8230FE5
:100B70000296A11DB11D20933D0180933E019093EB
:100B80003F01A0934001B0934101809142019091B7
:100B90004301A0914401B09145010196A11DB11DF1
:100BA0008093420190934301A0934401B093450187
:100BB000BF91AF919F918F913F912F910F900FBE59
:100BC0000F901F9018952FB7F89460913E01709187
:100BD0003F0180914001909141012FBF0895789489
:100BE00083B7826083BF83B7816083BF89B7816029
:100BF00089BF1EBC8EB582608EBD8EB581608EBDF4
:100C00008FB581608FBD85B5846085BD85B58064F5
:100C100085BD329A319A309A379A1AB808958093DE
:100C2000650008958E3008F08E5087702091650021
:100C300090E4299F90011124822B87B9369A369926
:100C4000FECF84B125B190E0922B0895C8DF59DB27
:100C5000C2E4D7E08BDC2097E9F314D1FBCF4F92AD
:100C60005F926F927F92AF92BF92CF92DF92EF929C
:100C7000FF920F931F93CF93DF93CDB7DEB7290178
:100C80003A01621B730B840B950B29893A894B89B6
:100C90005C892A193B094C095D09298B3A8B4B8BDE
:100CA0005C8B9B01AC0169897A898B899C896AD6A6
:100CB000E418F50806091709A8019701B3D62A0D0B
:100CC0003B1D4C1D5D1DCA01B901DF91CF911F91E4
:100CD0000F91FF90EF90DF90CF90BF90AF907F90FB
:100CE0006F905F904F900895FC0124853585F90140
:100CF000E05CFF4F80819181F901EE5BFF4F208125
:100D00003181821B930B8F7399270895FC01848591
:100D10009585FC01E05CFF4F40815181FC01EE5B59
:100D2000FF4F208131814217530741F00190F0813C
:100D3000E02DE80FF91F808190E008958FEF9FEF7D
:100D40000895FC0184859585FC01E05CFF4F40819E
:100D50005181FC01EE5BFF4F208131814217530727
:100D600079F0A081B181A80FB91F8C9120813181C8
:100D70002F5F3F4F2F7333273183208390E00895F7
:100D80008FEF9FEF0895FC0181A1882329F0A489AA
:100D9000B5898C9186FFFBCF11A20895CF93DF9385
:100DA000FC0126853785D901A05CBF4F8D919C91B0
:100DB000119701968F739927E901CE5BDF4F488128
:100DC000598184179507D9F30D90BC91A02DA20FDE
:100DD000B31F6C93A685B785A05CBF4F11969C93FB
:100DE0008E93A689B7892C9181E090E0078C02C090
:100DF000880F991F0A94E2F7282B2C9381E081A396
:100E00000488F589E02D80818064808381E090E012
:100E1000DF91CF91089508951F920F920FB60F9210
:100E200011242F933F934F938F939F93EF93FF93AF
:100E30005A991BC04CB18091EC019091ED01019643
:100E40008F7399272091EE013091EF01821793075C
:100E500069F0E091EC01F091ED01E455FE4F408323
:100E60009093ED018093EC0101C08CB1FF91EF9163
:100E70009F918F914F913F912F910F900FBE0F90A7
:100E80001F90189586E491E02FDF892B09F0C3CFDE
:100E900008951F920F920FB60F9211242F933F9334
:100EA0008F939F93EF93FF932091A8013091A90115
:100EB0008091AA019091AB012817390711F4559838
:100EC00013C0E091AA01F091AB01E859FE4F2081D7
:100ED0008091AA019091AB0101968F73992790930D
:100EE000AB018093AA012CB9FF91EF919F918F9153
:100EF0003F912F910F900FBE0F901F901895CF929A
:100F0000DF92EF92FF92CF93DF93EC016A017B01B6
:100F1000411581EE580761057105F1F0EC89FD89F5
:100F200081E090E008A002C0880F991F0A94E2F7C0
:100F3000808360E079E08DE390E0A701960150D5D1
:100F40002150310941095109569547953795279503
:100F5000211580E1380790F0EC89FD89108260E866
:100F600074E88EE190E0A70196013AD5215031094D
:100F7000410951095695479537952795E889F9898B
:100F80003083EA89FB89208319A2EE89FF89408199
:100F900081E090E09C010C8C02C0220F331F0A9468
:100FA000E2F7422B4083EE89FF8940819C010D8C42
:100FB00002C0220F331F0A94E2F7422B4083EE89CE
:100FC000FF8940819C010E8C02C0220F331F0A94BE
:100FD000E2F7422B4083EE89FF8920810F8C02C00B
:100FE000880F991F0A94E2F7809582238083DF910E
:100FF000CF91FF90EF90DF90CF900895109249012C
:101000001092480188EE93E0A0E0B0E080934A019E
:1010100090934B01A0934C01B0934D0181ED90E072
:1010200090934701809346018CEA91E0909353019D
:101030008093520188E691E090935501809354018A
:1010400080E490E0909357018093560129E230E0CC
:1010500030935901209358012BE230E030935B012B
:1010600020935A012AE230E030935D0120935C0125
:1010700090935F0180935E018CE290E09093610118
:101080008093600184E08093620183E08093630138
:1010900087E08093640185E08093650181E080931F
:1010A00066010895CF92DF92EF92FF920F931F9304
:1010B000CF93DF936C017A01EB01E60EF71E00E09F
:1010C00010E0CE15DF0561F06991D601ED91FC913C
:1010D0000190F081E02DC6010995080F191FF1CF8D
:1010E000C801DF91CF911F910F91FF90EF90DF909A
:1010F000CF9008956115710581F0DB010D900020FE
:10110000E9F7AD0141505109461B570BDC01ED9148
:10111000FC910280F381E02D099480E090E0089535
:10112000E9CFDC01ED91FC910190F081E02D099473
:101130000F931F93CF93DF93EC016DE0F2DF8C01EF
:101140006AE0CE01EEDF800F911FDF91CF911F91FA
:101150000F9108950F931F93CF93DF93EC01CADF94
:101160008C01CE01E5DF800F911FDF91CF911F91A0
:101170000F9108958F929F92AF92BF92CF92DF927C
:10118000EF92FF920F931F93CF93DF93CDB7DEB70C
:10119000A1970FB6F894DEBF0FBECDBF7C01C42E61
:1011A000E52FCB01D22E19A221E02D1510F02AE057
:1011B000D22E8E010F5D1F4F8D2C912CA12CB12CA6
:1011C0006C2D7E2FA50194010BD48C2DD29E8019FD
:1011D0001124015011098A3014F4805D01C0895C2A
:1011E000F8018083211531054105510521F0C22EFA
:1011F000E32FCA01E5CFB801C7017CDFA1960FB686
:10120000F894DEBF0FBECDBFDF91CF911F910F913C
:10121000FF90EF90DF90CF90BF90AF909F908F9016
:101220000895CF92DF92EF92FF920F931F93CF9387
:10123000DF93EC016A017B012115310579F4E88126
:10124000F9810190F081E02D642FDF91CF911F9102
:101250000F91FF90EF90DF90CF9009942A303105E5
:10126000D9F477FF18C06DE25CDF8C014427552765
:10127000BA014C195D096E097F092AE0CE017ADFB7
:10128000800F911FDF91CF911F910F91FF90EF90F1
:10129000DF90CF9008952AE0B701A601CE01DF913B
:1012A000CF911F910F91FF90EF90DF90CF9062CF81
:1012B0000F931F93CF93DF93EC019A01AB01662745
:1012C00057FD6095762FADDF8C01CE0131DF800FA9
:1012D000911FDF91CF911F910F9108955058BB2717
:1012E000AA270ED04DC13ED130F043D120F031F4C9
:1012F0009F3F11F41EF433C10EF4E095E7FB29C1C2
:10130000E92F4FD180F3BA17620773078407950757
:1013100018F071F49EF567C10EF4E0950B2EBA2F0C
:10132000A02D0B01B90190010C01CA01A0011124EB
:10133000FF27591B99F0593F50F4503E68F11A1697
:10134000F040A22F232F342F4427585FF3CF469528
:1013500037952795A795F0405395C9F77EF41F164A
:10136000BA0B620B730B840BBAF09150A1F0FF0F14
:10137000BB1F661F771F881FC2F70EC0BA0F621F00
:10138000731F841F48F4879577956795B795F795F0
:101390009E3F08F0B3CF9395880F08F09927EE0F82
:1013A0009795879508950CD0EBC0E3D040F0DAD044
:1013B00030F021F45F3F19F0CCC0511115C1CFC0FE
:1013C000F0D098F39923C9F35523B1F3951B550B2E
:1013D000BB27AA2762177307840738F09F5F5F4F08
:1013E000220F331F441FAA1FA9F333D00E2E3AF049
:1013F000E0E830D091505040E695001CCAF729D063
:10140000FE2F27D0660F771F881FBB1F26173707B1
:101410004807AB07B0E809F0BB0B802DBF01FF27E1
:1014200093585F4F2AF09E3F510568F092C0DCC090
:101430005F3FECF3983EDCF3869577956795B7951B
:10144000F7959F5FC9F7880F911D9695879597F936
:101450000895E1E0660F771F881FBB1F62177307AF
:101460008407BA0720F0621B730B840BBA0BEE1FC4
:1014700088F7E095089504D06894B111B5C0089537
:1014800098D088F09F5790F0B92F9927B751A0F0C6
:10149000D1F0660F771F881F991F1AF0BA95C9F708
:1014A00012C0B13081F09FD0B1E008959CC0672F89
:1014B000782F8827B85F39F0B93FCCF386957795B8
:1014C0006795B395D9F73EF49095809570956195A1
:1014D0007F4F8F4F9F4F0895E89409C097FB3EF4CC
:1014E00090958095709561957F4F8F4F9F4F992371
:1014F000A9F0F92F96E9BB279395F69587957795EF
:101500006795B795F111F8CFFAF4BB0F11F460FFAE
:101510001BC06F5F7F4F8F4F9F4F16C0882311F006
:1015200096E911C0772321F09EE8872F762F05C01A
:10153000662371F096E8862F70E060E02AF09A95B5
:10154000660F771F881FDAF7880F9695879597F9AA
:10155000089597F99F6780E870E060E008959FEF35
:1015600080EC089500240A9416161706180609063A
:10157000089500240A941216130614060506089509
:10158000092E0394000C11F4882352F0BB0F40F491
:10159000BF2B11F460FF04C06F5F7F4F8F4F9F4FD1
:1015A000089557FD9058440F551F59F05F3F71F053
:1015B0004795880F97FB991F61F09F3F79F08795BA
:1015C0000895121613061406551FF2CF4695F1DF43
:1015D00008C0161617061806991FF1CF86957105D3
:1015E000610508940895E894BB2766277727CB0107
:1015F00097F908950BD0C4CFB5DF28F0BADF18F003
:10160000952309F0A6CFABCF1124EECFCADFA0F30C
:10161000959FD1F3950F50E0551F629FF001729F87
:10162000BB27F00DB11D639FAA27F00DB11DAA1FA6
:10163000649F6627B00DA11D661F829F2227B00DF3
:10164000A11D621F739FB00DA11D621F839FA00D7E
:10165000611D221F749F3327A00D611D231F849FCE
:10166000600D211D822F762F6A2F11249F57504025
:101670008AF0E1F088234AF0EE0FFF1FBB1F661FC0
:10168000771F881F91505040A9F79E3F510570F079
:1016900060CFAACF5F3FECF3983EDCF38695779559
:1016A0006795B795F795E7959F5FC1F7FE2B880F74
:1016B000911D9695879597F90895FA01EE0FFF1FF2
:1016C00030962105310599F16115710561F4803875
:1016D000BFE39B0749F168949038810561F0803839
:1016E000BFEF9B0741F0992342F5FF3FE10531052C
:1016F000210511F1E8940894E795D901AA2329F46A
:10170000AB2FBE2FF85FD0F310C0FF5F70F4A6952B
:10171000E0F7F73950F019F0FF3A38F49F779F93CC
:101720000CD00F9007FC905808953EF018CF60E061
:1017300070E080E89FE308954FE79F775F934F93B2
:101740003F932F939ED02F913F914F915F9152DF06
:1017500005C019F40EF0FDCE46CF01CF2ADFC8F345
:101760009638C0F707F80F92E8942BE33AEA48EB73
:101770005FE74EDF0F920F920F924DB75EB70F9259
:10178000C0D0E6E2F0E016D04F915F91EF91FF916B
:10179000E595EE1FFF1F49F0FE57E0684427EE0F66
:1017A000441FFA95E1F74195550B32D00F9007FE93
:1017B00026C00895DF93CF931F930F93FF92EF926C
:1017C000DF927B018C01689405C0DA2EEF011EDFE9
:1017D000FE01E894A5912591359145915591AEF37F
:1017E000EF018EDDFE019701A801DA9479F7DF9011
:1017F000EF90FF900F911F91CF91DF9108959B0182
:10180000AC0160E070E080E89FE3CDCDA2CEACC03B
:10181000D0DEE8F39923D9F3940F511DBBF3915017
:10182000504094F059F0882332F0660F771F881FDC
:1018300091505040C1F79E3F510544F7880F911DCC
:101840009695879597F908955F3FACF0983E9CF088
:10185000BB27869577956795B79508F4B160939502
:10186000C1F7BB0F58F711F460FFE8CF6F5F7F4FF0
:101870008F4F9F4FE3CFB8CE0EF076C070CE6894F6
:1018800068CE97DEC8F39923D1F3C6F3DF93CF93E5
:101890001F930F93FF92C92FDD2788232AF02197EA
:1018A000660F771F881FDAF720E030E040E85FEB33
:1018B0009FE3883920F0803E30F021968F770FDD4E
:1018C000EEE4F0E003C00BDDEBE7F0E073DF8B014B
:1018D000BE01EC01FB2E6F5771097595771F880BC0
:1018E000990BFCDD28E132E741E35FE38FDEAF2DAA
:1018F0009801AE01FF900F911F91CF91DF9100DD14
:101900003FCEFA01DC01AA0FBB1F9B01AC01BF5700
:1019100028F422273327442750781FC0B75188F472
:10192000AB2F0024469537952795011CA395D2F33C
:10193000002069F0220F331F441FB395DAF30DD056
:10194000CDCC61307105A0E88A07B94630F49B011F
:10195000AC016627772788279078309621F020837E
:1019600031834283538308959F3F31F0915020F497
:10197000879577956795B795880F911D969587956B
:1019800097F90895DB018F939F9380D0BF91AF911A
:10199000A29F800D911DA39F900DB29F900D1124C9
:1019A0000895991B79E004C0991F961708F0961BBB
:1019B000881F7A95C9F78095089597FB072E16F42E
:1019C000009406D077FD08D06BD007FC05D03EF41C
:1019D000909581959F4F0895709561957F4F0895DB
:1019E000A1E21A2EAA1BBB1BFD010DC0AA1FBB1F23
:1019F000EE1FFF1FA217B307E407F50720F0A21B95
:101A0000B30BE40BF50B661F771F881F991F1A9401
:101A100069F760957095809590959B01AC01BD012B
:101A2000CF010895052E97FB16F400940FD057FDB3
:101A300005D0D6DF07FC02D046F408C0509540958B
:101A4000309521953F4F4F4F5F4F0895909580956A
:101A5000709561957F4F8F4F9F4F089505D0332329
:101A600012F48A1B9B0B0DC0A29FB001B39FC00153
:101A7000A39F01D0B29F700D811D1124911D089567
:101A8000F3DFB7FF0895821B930B0895EDDFA59F49
:101A9000900DB49F900DA49F800D911D1124089569
:101AA000AA1BBB1B51E107C0AA1FBB1FA617B70784
:101AB00010F0A61BB70B881F991F5A95A9F78095A0
:101AC0009095BC01CD010895EE0FFF1F0590F49194
:081AD000E02D0994F894FFCF0A
:101AD800FFFF015AB4015475727265743A200046CA
:101AE800726F6E743A2000466F727761726420706C
:101AF8006F737369626C652E00416C7465726E61F8
:101B0800746976652077617920706F737369626C88
:101B1800652E004265737420726F75746520666F58
:101B2800756E640046726F6E742049523A20000A3E
:101B3800005475727265742049523A200000000002
:0E1B480000CE0652087406A1068606C30600EB
:00000001FF
