:1000000041C02EC75AC702C262C061C0CEC35FC022
:100010005EC027C65CC064C8A0C859C058C057C0DD
:1000200056C055C054C0000000000000000000038E
:100030000405000000000000000001020408102078
:10004000408001020408102001020408102004046A
:100050000404040404040202020202020303030370
:1000600003030000000036003300300000000000F1
:100070003800350032000000000037003400310045
:100080004702620911241FBECFE5D4E0DEBFCDBF19
:1000900010E0A0E6B0E0E0E1F5E102C005900D92CD
:1000A000A837B107D9F711E0A8E7B0E001C01D9269
:1000B000AC3AB107E1F710E0C4E8D0E003C0229702
:1000C000FE0120DAC038D107D1F724D71FCA98CF54
:1000D0000F931F93FC01C90171836083558344838F
:1000E00064E670E0A8D9758764871383028381E092
:1000F0001F910F917FC60F931F93DC011B968C916C
:100100001B97882389F1ED91FC91119790811496AA
:100110008C911497982381E009F480E016969C91C5
:100120001697981709F460C017960D911D912D919F
:100130003C911A971C969C911C97992329F041E0B9
:1001400050E060E070E003C04FEF5FEFBA01400F96
:10015000511F621F731F17964D935D936D937C9390
:100160001A9716968C9340C0ED91FD918081ED9188
:10017000FD919081ED91FD916C9163708E2309F05A
:1001800064609F2309F06860E0EDF0E0E60FF11D88
:10019000659565956D936D917D918D919D91099476
:1001A00023C01AC012C016C010C01EC009C014C09F
:1001B00013C006C019C009C00DC007C00DC014C0CF
:1001C00062507040804090400BC061507040804051
:1001D000904006C06E5F01C06F5F7F4F8F4F9F4F93
:1001E0009E938E937E936E931F910F9108958091AD
:1001F0007A0090917B007FCF809178009091790078
:100200007ACF823061F08330B1F470937B006093D9
:100210007A0041E050E067EF70E081E009C0709340
:1002200079006093780041E050E06CEF70E080E08E
:10023000F8D581E0089580E008950F931F93CF9340
:10024000DF93EC01062F142F62E0802F9CD462E034
:10025000812F99D4202F30E0F901E25BFF4FE49128
:10026000F0E0EE0FFF1FEE59FF4F45915491598377
:100270004883F901E65CFF4F24912C83212F30E065
:10028000F901E25BFF4FE491F0E0EE0FFF1FEE5942
:10029000FF4FA591B491BB83AA83F901E65CFF4FA0
:1002A00024912D831F82188619861A8680ED97E087
:1002B00076D5E881F98190818C81982381E009F4D9
:1002C00080E0EA81FB8190812D81922309F0826098
:1002D0008E83BE01802F95DF8D87BE01812F91DF38
:1002E0002D8590E0820F911D8D87DF91CF911F9119
:1002F0000F9108954F925F926F927F92AF92BF924B
:10030000CF92DF92EF92FF920F931F93FC01653B18
:10031000710514F064EB70E0A080B180CC24B7FCD0
:10032000C094DC2C2B0177FF02C0412C512CB20170
:10033000882777FD8095982F2281338129016624B3
:1003400057FC6094762C7F926F925F924F9214EBE1
:10035000E12EF12C00E010E020E030E0A901E3D52F
:100360000F900F900F900F90CB011F910F91FF9066
:10037000EF90DF90CF90BF90AF907F906F905F90A5
:100380004F900895F8948BE085BD8FEF83BD89B7BA
:10039000806889BF789466E070E08CEC90E047D389
:1003A0006BE070E085EC90E042D361E087E0EBD356
:1003B00061E089E0E8D361E088E0E5D361E08AE0CC
:1003C000E2D360E08CE0DFD360E08DE0DCD360E07E
:1003D0008EE0D9D360E08FE0D6D360E080E1D3D364
:1003E00060E081E1D0D360E082E1CDD360E083E1E1
:1003F000CAD38EE002D590937D0080937C0040E8C4
:1004000055E260E070E082E091E0DDC61F920F925D
:100410000FB60F9211242F933F934F935F936F93D7
:100420007F938F939F93AF93BF93EF93FF938091AD
:100430007E008F5F80937E0090917E0061E08091CE
:100440008800891708F460E089E0D6D390917E0097
:1004500061E080918700891708F460E08AE0CCD3DE
:1004600080917E00843610F010927E00FF91EF9113
:10047000BF91AF919F918F917F916F915F914F91BC
:100480003F912F910F900FBE0F901F9018950F93D3
:100490001F93CF93DF938CEC90E035D200E212E013
:1004A0001093C9000093C800C0E6D9E0D093CB00F8
:1004B000C093CA0085EC90E026D21093C20000934E
:1004C000C100D093C400C093C30006EB1EE42DE529
:1004D00030E049E150E060E170E083EB90E0F8DD6E
:1004E00008E314E02DE530E049E150E06FE070E012
:1004F00085EA90E0EDDD44E062E087E990E09DDE92
:1005000045E063E089E890E0DF91CF911F910F9182
:1005100094CECF9382E091E05DD5019609F48CC032
:1005200082E091E072D5C82FE0910201F0910301C1
:100530000190F081E02D682F82E091E00995C833A9
:1005400071F410928600109285001092840010922F
:10055000830082E3809388008093870064C0C23365
:1005600079F421E030E030938600209385003093C9
:10057000840020938300C0938800C093870053C0F9
:10058000C53371F410928600109285001092840099
:100590001092830010928700109288008AE541C073
:1005A000C93379F4109284001092830081E090E0C6
:1005B00090938600809385008FE08093870081EF81
:1005C00010C0C73389F481E090E090938400809359
:1005D0008300109286001092850081EF809387003F
:1005E0008FE0809388001FC0C13371F420916500B3
:1005F000822F90E08A3091052CF08F3B910584F496
:1006000086EF0CC080E00DC0C333B1F420916500CB
:10061000822F90E08B3A91051CF48AE0820F01C092
:1006200084EB8093650067D360937F0070938000B4
:100630008093810090938200CF910895AF92BF92F2
:10064000CF92DF92EF92FF920F931F9362DF53D30B
:1006500000917F00109180002091810030918200F4
:10066000601B710B820B930B693E734081059105F2
:10067000D8F1109288001092870010928600109294
:10068000850010928400109283008EE0B6D3BC01E6
:1006900080917C0090917D006817790729F1882767
:1006A00077FD8095982F1F921F921F9223EB2F9317
:1006B000A12CB12C6501E12CF12C8701EA94F39473
:1006C00020E030E0A9012FD470937D0060937C007E
:1006D00085EC90E0E4D16FE070E080E090E03BD307
:1006E0000F900F900F900F908091880020918700BD
:1006F000821708F4282F253110F48FEF03C0243619
:1007000018F08EE383BD0DC030E024513109AFE312
:10071000BFEF54D620E530E040E050E0C1D6215094
:1007200023BD61E08091850090918600892B09F0BE
:1007300060E087E061D261E0809183009091840065
:10074000892B09F060E088E057D221E08091850094
:1007500090918600892B09F020E02093A30021E0EE
:100760008091830090918400892B09F020E02093F0
:1007700095006091650070E088EC90E0BBDDBC0105
:100780008CEC90E059D16091640070E081EC90E0D5
:10079000B1DDBC0185EC90E01F910F91FF90EF90CF
:1007A000DF90CF90BF90AF9047C11F920F920FB6CE
:1007B0000F9211242F933F934F935F936F937F93E7
:1007C0008F939F93AF93BF93EF93FF938091D0004C
:1007D00087FF03C01DBC1CBC1AC02091D00033276A
:1007E00027FD30958091CF0090E0281739077CF4E1
:1007F0008091D000992787FD9095FC01EE0FFF1F97
:10080000E80FF91FEF52FF4F808186FD15C08091E0
:10081000D0008F5F8093D0002091D000332727FD38
:1008200030958091CF0090E028173907B4F480917B
:10083000D0008C3024F111C08091D000992787FD21
:100840009095FC01EE0FFF1FE80FF91FEF52FF4FCD
:10085000808160E08F73D0D1DACF8CB59DB50496DE
:1008600080349C4918F480E49CE903C08CB59DB5A4
:1008700004969BBD8ABD8FEF8093D00033C08CB5AA
:100880009DB52091D000332727FD3095F901EE0F5B
:10089000FF1FE20FF31FEF52FF4F21813281820FC2
:1008A000931F9BBD8ABD8091D000992787FD9095AD
:1008B000FC01EE0FFF1FE80FF91FEF52FF4F808181
:1008C00086FF10C08091D000992787FD9095FC018C
:1008D000EE0FFF1FE80FF91FEF52FF4F808161E01D
:1008E0008F738AD1FF91EF91BF91AF919F918F91BB
:1008F0007F916F915F914F913F912F910F900FBE1C
:100900000F901F9018952091CF002C30A0F431E06B
:10091000320F3093CF00FC012083822F90E0FC0146
:10092000EE0FFF1FE80FF91FEF52FF4F88EB9BE020
:100930009283818308952FEFFC0120830895DF9235
:10094000EF92FF920F931F93CF93DF93EC01D62E7C
:100950007A01890188818C3008F060C061E08D2DBA
:1009600012D18881A82FB0E0FD01EE0FFF1FEA0F22
:10097000FB1FEF52FF4F2D2D2F739081907C922BF8
:10098000908360E272E06E197F0977FF02C06D5FAD
:100990007F4F7595679575956795698340E659E032
:1009A000401B510B57FF02C04D5F5F4F5595479558
:1009B000559547954A836CE032D59CE0899FB001FC
:1009C000112420E030E0A901460F571FFA01EE0F75
:1009D000FF1FE40FF51FEF52FF4F908196FD12C0ED
:1009E0002F5F3F4F2C30310571F781110BC01FBCB9
:1009F00082E08EBD1DBC1CBC88B7806188BF89B7F2
:100A0000806189BF888190E0FC01EE0FFF1FE80F35
:100A1000F91FEF52FF4F8081806480838881DF91CE
:100A2000CF911F910F91FF90EF90DF90089520E6F6
:100A300039E040E252E083CFFC0180818C3070F5D8
:100A4000918128E830E0291B310997FD3395220F69
:100A5000331F220F331F621773077CF0928128E542
:100A600032E0291B310997FD3395220F331F220FE6
:100A7000331F621773070CF49B014FB7F89490E093
:100A8000FC01EE0FFF1FE80FF91FEF52FF4F22503E
:100A90003109220F331F328321834FBF08954F92B4
:100AA0005F926F927F92AF92BF92CF92DF92EF925E
:100AB000FF920F931F93CF93DF93EC01603282E09C
:100AC00078070CF03FC077FD06C0653B71052CF040
:100AD00064EB70E002C060E070E0898128E830E0FB
:100AE000281B310987FD3395220F331F220F331F37
:100AF0005901CC24B7FCC094DC2C882777FD809565
:100B0000982F2A8148E552E0421B510927FD539551
:100B1000440F551F440F551F2A01662457FC60944B
:100B2000762C7F926F925F924F9214EBE12EF12C14
:100B300000E010E020E030E0A901F5D10F900F9027
:100B40000F900F90CE01DF91CF911F910F91FF90E9
:100B5000EF90DF90CF90BF90AF907F906F905F90BD
:100B60004F906ACF843039F0853049F0833051F4AA
:100B70008FB58F7702C08FB58F7D8FBD089585B5F6
:100B80008F7D85BD0895CF93DF9390E0FC01E65CF7
:100B9000FF4F2491FC01E25BFF4F8491882349F1D0
:100BA00090E0880F991FFC01EA58FF4FA591B4917E
:100BB00084599F4FFC01C591D4919FB7611108C022
:100BC000F8948C91209582238C93888182230AC08B
:100BD000623051F4F8948C91322F309583238C93AA
:100BE0008881822B888304C0F8948C91822B8C930B
:100BF0009FBFDF91CF9108950F931F93CF93DF9302
:100C00001F92CDB7DEB7282F30E0F901EA5DFF4F24
:100C10008491F901E65CFF4F1491F901E25BFF4F0B
:100C200004910023C1F0882319F069839BDF698157
:100C3000E02FF0E0EE0FFF1FE459FF4FA591B491B4
:100C40009FB7F8948C91611103C01095812301C066
:100C5000812B8C939FBF0F90DF91CF911F910F91AC
:100C600008951F920F920FB60F9211242F933F9366
:100C70008F939F93AF93BF938091F6009091F7006D
:100C8000A091F800B091F9003091F50023E0230F16
:100C90002D3720F40196A11DB11D05C026E8230FB4
:100CA0000296A11DB11D2093F5008093F60090934C
:100CB000F700A093F800B093F9008091FA009091AA
:100CC000FB00A091FC00B091FD000196A11DB11D9B
:100CD0008093FA009093FB00A093FC00B093FD007A
:100CE000BF91AF919F918F913F912F910F900FBE28
:100CF0000F901F9018952FB7F8946091F60070919F
:100D0000F7008091F8009091F9002FBF08953FB748
:100D1000F8948091FA009091FB00A091FC00B091B2
:100D2000FD0022B708B600FE05C02F3F19F001965E
:100D3000A11DB11D3FBF6627782F892F9A2F620F03
:100D4000711D811D911D42E0660F771F881F991F3D
:100D50004A95D1F70895CF92DF92EF92FF92CF9309
:100D6000DF936B017C01D3DFEB01C114D104E104FB
:100D7000F10471F0CCDF6C1B7D0B683E7340A8F36F
:100D800081E0C81AD108E108F108C851DC4FEDCF65
:100D9000DF91CF91FF90EF90DF90CF900895019772
:100DA000009739F0880F991F880F991F02970197B4
:100DB000F1F70895789483B7826083BF83B7816029
:100DC00083BF89B7816089BF1EBC8EB582608EBD2E
:100DD0008EB581608EBD8FB581608FBD85B5846015
:100DE00085BD85B5806485BD329A319A309A379A2F
:100DF0001AB808958093660008958E3008F08E50DA
:100E000087702091660090E4299F90011124822B25
:100E100087B9369A3699FECF84B125B190E0922BEE
:100E200008958230E0F4E82FF0E0EE0FFF1FE2506B
:100E3000FF4F71836083813039F085B78C7F842BBD
:100E400085BF8BB780640AC085B7440F551F440F18
:100E5000551F837F842B85BF8BB780688BBF089518
:100E60001F920F920FB60F9211242F933F934F931F
:100E70005F936F937F938F939F93AF93BF93EF9302
:100E8000FF938091FE009091FF00892B29F0E09163
:100E9000FE00F091FF000995FF91EF91BF91AF9196
:100EA0009F918F917F916F915F914F913F912F9182
:100EB0000F900FBE0F901F9018951F920F920FB6B4
:100EC0000F9211242F933F934F935F936F937F93D0
:100ED0008F939F93AF93BF93EF93FF938091000104
:100EE00090910101892B29F0E0910001F09101011D
:100EF0000995FF91EF91BF91AF919F918F917F9154
:100F00006F915F914F913F912F910F900FBE0F9076
:100F10001F9018954FDF36DAC6EAD8E08FDB2097AE
:100F2000E9F314D1FBCF4F925F926F927F92AF9211
:100F3000BF92CF92DF92EF92FF920F931F93CF93C6
:100F4000DF93CDB7DEB729013A01621B730B840B27
:100F5000950B29893A894B895C892A193B094C09E7
:100F60005D09298B3A8B4B8B5C8B9B01AC016989AA
:100F70007A898B899C8944D2E418F50806091709F7
:100F8000A80197018DD22A0D3B1D4C1D5D1DCA0184
:100F9000B901DF91CF911F910F91FF90EF90DF90FA
:100FA000CF90BF90AF907F906F905F904F900895DB
:100FB000FC0124853585F901E05CFF4F808191813A
:100FC000F901EE5BFF4F20813181821B930B8F7300
:100FD00099270895FC0184859585FC01E05CFF4F0D
:100FE00040815181FC01EE5BFF4F2081318142172E
:100FF000530741F00190F081E02DE80FF91F808147
:1010000090E008958FEF9FEF0895FC01848595850A
:10101000FC01E05CFF4F40815181FC01EE5BFF4F22
:10102000208131814217530779F0A081B181A80F47
:10103000B91F8C91208131812F5F3F4F2F73332750
:101040003183208390E008958FEF9FEF0895FC0196
:1010500081A1882329F0A489B5898C9186FFFBCFD3
:1010600011A20895CF93DF93FC0126853785D9011E
:10107000A05CBF4F8D919C91119701968F7399271A
:10108000E901CE5BDF4F4881598184179507D9F379
:101090000D90BC91A02DA20FB31F6C93A685B785B0
:1010A000A05CBF4F11969C938E93A689B7892C9113
:1010B00081E090E0078C02C0880F991F0A94E2F744
:1010C000282B2C9381E081A30488F589E02D808171
:1010D0008064808381E090E0DF91CF91089508954E
:1010E0001F920F920FB60F9211242F933F934F939D
:1010F0008F939F93EF93FF935A991BC04CB18091AC
:10110000A8019091A90101968F7399272091AA01B6
:101110003091AB018217930769F0E091A801F0913B
:10112000A901E859FE4F40839093A9018093A8013B
:1011300001C08CB1FF91EF919F918F914F913F91A1
:101140002F910F900FBE0F901F90189582E091E0A5
:101150002FDF892B09F0C3CF08951F920F920FB68E
:101160000F9211242F933F938F939F93EF93FF93AD
:101170002091640130916501809166019091670131
:101180002817390711F4559813C0E0916601F091C2
:101190006701EC5DFE4F20818091660190916701AF
:1011A00001968F73992790936701809366012CB9FC
:1011B000FF91EF919F918F913F912F910F900FBED3
:1011C0000F901F901895CF92DF92EF92FF92CF93DE
:1011D000DF93EC016A017B01411581EE580761053F
:1011E0007105F1F0EC89FD8981E090E008A002C072
:1011F000880F991F0A94E2F7808360E079E08DE31D
:1012000090E0A70196012AD12150310941095109E5
:101210005695479537952795211580E1380790F029
:10122000EC89FD89108260E874E88EE190E0A70106
:10123000960114D12150310941095109569547951C
:1012400037952795E889F9893083EA89FB892083D6
:1012500019A2EE89FF89408181E090E09C010C8C0D
:1012600002C0220F331F0A94E2F7422B4083EE891B
:10127000FF8940819C010D8C02C0220F331F0A940C
:10128000E2F7422B4083EE89FF8940819C010E8C5E
:1012900002C0220F331F0A94E2F7422B4083EE89EB
:1012A000FF8920810F8C02C0880F991F0A94E2F7F2
:1012B000809582238083DF91CF91FF90EF90DF9024
:1012C000CF900895109205011092040188EE93E0EA
:1012D000A0E0B0E08093060190930701A09308017D
:1012E000B09309018BE690E0909303018093020193
:1012F00088E691E090930F0180930E0184E291E0E3
:10130000909311018093100180E490E09093130179
:101310008093120129E230E03093150120931401EB
:101320002BE230E030931701209316012AE230E0DF
:10133000309319012093180190931B0180931A0197
:101340008CE290E090931D0180931C0184E08093D7
:101350001E0183E080931F0187E08093200185E0D8
:101360008093210181E0809322010895CF92DF9242
:10137000EF92FF920F931F93CF93DF936C017A014B
:10138000EB01E60EF71E00E010E0CE15DF0561F080
:101390006991D601ED91FC910190F081E02DC6019B
:1013A0000995080F191FF1CFC801DF91CF911F9147
:1013B0000F91FF90EF90DF90CF90089505D03323E9
:1013C00012F48A1B9B0B0DC0A29FB001B39FC001FA
:1013D000A39F01D0B29F700D811D1124911D08950E
:1013E000F3DFB7FF0895821B930B0895EDDFA59FF0
:1013F000900DB49F900DA49F800D911D1124089510
:10140000DB018F939F93F2DFBF91AF91A29F800D7D
:10141000911DA39F900DB29F900D11240895991BCB
:1014200079E004C0991F961708F0961B881F7A95DB
:10143000C9F78095089597FB072E16F4009406D0FF
:1014400077FD08D049D007FC05D03EF490958195F2
:101450009F4F0895709561957F4F0895A1E21A2ED0
:10146000AA1BBB1BFD010DC0AA1FBB1FEE1FFF1F48
:10147000A217B307E407F50720F0A21BB30BE40B98
:10148000F50B661F771F881F991F1A9469F76095DF
:101490007095809590959B01AC01BD01CF01089599
:1014A000052E97FB16F400940FD057FD05D0D6DF1C
:1014B00007FC02D046F408C0509540953095219520
:1014C0003F4F4F4F5F4F0895909580957095619570
:1014D0007F4F8F4F9F4F0895AA1BBB1B51E107C041
:1014E000AA1FBB1FA617B70710F0A61BB70B881FB4
:1014F000991F5A95A9F780959095BC01CD01089543
:10150000EE0FFF1F0590F491E02D0994F894FFCFA2
:10151000010000005A5A01000000003208B609D844
:08152000070508EA072708008F
:00000001FF
